{
  "_format": "hh-sol-artifact-1",
  "contractName": "EscrowPayment",
  "sourceName": "contracts/EscrowPayment.sol",
  "abi": [
    {
      "inputs": [
        {
          "internalType": "address",
          "name": "_usdcToken",
          "type": "address"
        },
        {
          "internalType": "uint256",
          "name": "_platformFeePercent",
          "type": "uint256"
        },
        {
          "internalType": "address",
          "name": "_admin",
          "type": "address"
        }
      ],
      "stateMutability": "nonpayable",
      "type": "constructor"
    },
    {
      "inputs": [],
      "name": "EnforcedPause",
      "type": "error"
    },
    {
      "inputs": [],
      "name": "ExpectedPause",
      "type": "error"
    },
    {
      "inputs": [
        {
          "internalType": "address",
          "name": "owner",
          "type": "address"
        }
      ],
      "name": "OwnableInvalidOwner",
      "type": "error"
    },
    {
      "inputs": [
        {
          "internalType": "address",
          "name": "account",
          "type": "address"
        }
      ],
      "name": "OwnableUnauthorizedAccount",
      "type": "error"
    },
    {
      "inputs": [],
      "name": "ReentrancyGuardReentrantCall",
      "type": "error"
    },
    {
      "inputs": [
        {
          "internalType": "address",
          "name": "token",
          "type": "address"
        }
      ],
      "name": "SafeERC20FailedOperation",
      "type": "error"
    },
    {
      "anonymous": false,
      "inputs": [
        {
          "indexed": false,
          "internalType": "uint256",
          "name": "oldFee",
          "type": "uint256"
        },
        {
          "indexed": false,
          "internalType": "uint256",
          "name": "newFee",
          "type": "uint256"
        }
      ],
      "name": "FeeUpdated",
      "type": "event"
    },
    {
      "anonymous": false,
      "inputs": [
        {
          "indexed": true,
          "internalType": "uint256",
          "name": "itemId",
          "type": "uint256"
        },
        {
          "indexed": true,
          "internalType": "address",
          "name": "creator",
          "type": "address"
        },
        {
          "indexed": false,
          "internalType": "uint256",
          "name": "price",
          "type": "uint256"
        },
        {
          "indexed": false,
          "internalType": "string",
          "name": "title",
          "type": "string"
        }
      ],
      "name": "ItemListed",
      "type": "event"
    },
    {
      "anonymous": false,
      "inputs": [
        {
          "indexed": true,
          "internalType": "uint256",
          "name": "itemId",
          "type": "uint256"
        },
        {
          "indexed": true,
          "internalType": "address",
          "name": "buyer",
          "type": "address"
        },
        {
          "indexed": true,
          "internalType": "address",
          "name": "creator",
          "type": "address"
        },
        {
          "indexed": false,
          "internalType": "uint256",
          "name": "totalPrice",
          "type": "uint256"
        },
        {
          "indexed": false,
          "internalType": "uint256",
          "name": "platformFee",
          "type": "uint256"
        },
        {
          "indexed": false,
          "internalType": "uint256",
          "name": "creatorPayout",
          "type": "uint256"
        }
      ],
      "name": "ItemPurchased",
      "type": "event"
    },
    {
      "anonymous": false,
      "inputs": [
        {
          "indexed": true,
          "internalType": "address",
          "name": "previousOwner",
          "type": "address"
        },
        {
          "indexed": true,
          "internalType": "address",
          "name": "newOwner",
          "type": "address"
        }
      ],
      "name": "OwnershipTransferred",
      "type": "event"
    },
    {
      "anonymous": false,
      "inputs": [
        {
          "indexed": false,
          "internalType": "address",
          "name": "account",
          "type": "address"
        }
      ],
      "name": "Paused",
      "type": "event"
    },
    {
      "anonymous": false,
      "inputs": [
        {
          "indexed": true,
          "internalType": "uint256",
          "name": "itemId",
          "type": "uint256"
        },
        {
          "indexed": true,
          "internalType": "address",
          "name": "buyer",
          "type": "address"
        },
        {
          "indexed": false,
          "internalType": "uint256",
          "name": "amount",
          "type": "uint256"
        }
      ],
      "name": "RefundIssued",
      "type": "event"
    },
    {
      "anonymous": false,
      "inputs": [
        {
          "indexed": false,
          "internalType": "address",
          "name": "account",
          "type": "address"
        }
      ],
      "name": "Unpaused",
      "type": "event"
    },
    {
      "inputs": [],
      "name": "MAX_FEE_PERCENT",
      "outputs": [
        {
          "internalType": "uint256",
          "name": "",
          "type": "uint256"
        }
      ],
      "stateMutability": "view",
      "type": "function"
    },
    {
      "inputs": [
        {
          "internalType": "uint256",
          "name": "_itemId",
          "type": "uint256"
        }
      ],
      "name": "buyItem",
      "outputs": [],
      "stateMutability": "nonpayable",
      "type": "function"
    },
    {
      "inputs": [
        {
          "internalType": "address",
          "name": "",
          "type": "address"
        },
        {
          "internalType": "uint256",
          "name": "",
          "type": "uint256"
        }
      ],
      "name": "buyerPurchases",
      "outputs": [
        {
          "internalType": "uint256",
          "name": "",
          "type": "uint256"
        }
      ],
      "stateMutability": "view",
      "type": "function"
    },
    {
      "inputs": [
        {
          "internalType": "uint256",
          "name": "_price",
          "type": "uint256"
        }
      ],
      "name": "calculateFees",
      "outputs": [
        {
          "internalType": "uint256",
          "name": "platformFee",
          "type": "uint256"
        },
        {
          "internalType": "uint256",
          "name": "creatorPayout",
          "type": "uint256"
        }
      ],
      "stateMutability": "view",
      "type": "function"
    },
    {
      "inputs": [
        {
          "internalType": "address",
          "name": "",
          "type": "address"
        },
        {
          "internalType": "uint256",
          "name": "",
          "type": "uint256"
        }
      ],
      "name": "creatorItems",
      "outputs": [
        {
          "internalType": "uint256",
          "name": "",
          "type": "uint256"
        }
      ],
      "stateMutability": "view",
      "type": "function"
    },
    {
      "inputs": [
        {
          "internalType": "address",
          "name": "_token",
          "type": "address"
        },
        {
          "internalType": "uint256",
          "name": "_amount",
          "type": "uint256"
        }
      ],
      "name": "emergencyWithdraw",
      "outputs": [],
      "stateMutability": "nonpayable",
      "type": "function"
    },
    {
      "inputs": [
        {
          "internalType": "address",
          "name": "_buyer",
          "type": "address"
        }
      ],
      "name": "getBuyerPurchases",
      "outputs": [
        {
          "internalType": "uint256[]",
          "name": "",
          "type": "uint256[]"
        }
      ],
      "stateMutability": "view",
      "type": "function"
    },
    {
      "inputs": [
        {
          "internalType": "address",
          "name": "_creator",
          "type": "address"
        }
      ],
      "name": "getCreatorItems",
      "outputs": [
        {
          "internalType": "uint256[]",
          "name": "",
          "type": "uint256[]"
        }
      ],
      "stateMutability": "view",
      "type": "function"
    },
    {
      "inputs": [
        {
          "internalType": "uint256",
          "name": "_itemId",
          "type": "uint256"
        }
      ],
      "name": "getItem",
      "outputs": [
        {
          "internalType": "address",
          "name": "creator",
          "type": "address"
        },
        {
          "internalType": "uint256",
          "name": "price",
          "type": "uint256"
        },
        {
          "internalType": "string",
          "name": "title",
          "type": "string"
        },
        {
          "internalType": "bool",
          "name": "active",
          "type": "bool"
        }
      ],
      "stateMutability": "view",
      "type": "function"
    },
    {
      "inputs": [
        {
          "internalType": "uint256",
          "name": "_itemId",
          "type": "uint256"
        },
        {
          "internalType": "uint256",
          "name": "_index",
          "type": "uint256"
        }
      ],
      "name": "getPurchase",
      "outputs": [
        {
          "internalType": "address",
          "name": "buyer",
          "type": "address"
        },
        {
          "internalType": "uint256",
          "name": "amount",
          "type": "uint256"
        },
        {
          "internalType": "uint256",
          "name": "timestamp",
          "type": "uint256"
        },
        {
          "internalType": "bool",
          "name": "refunded",
          "type": "bool"
        }
      ],
      "stateMutability": "view",
      "type": "function"
    },
    {
      "inputs": [
        {
          "internalType": "uint256",
          "name": "_itemId",
          "type": "uint256"
        }
      ],
      "name": "getPurchaseCount",
      "outputs": [
        {
          "internalType": "uint256",
          "name": "",
          "type": "uint256"
        }
      ],
      "stateMutability": "view",
      "type": "function"
    },
    {
      "inputs": [
        {
          "internalType": "uint256",
          "name": "",
          "type": "uint256"
        }
      ],
      "name": "items",
      "outputs": [
        {
          "internalType": "address",
          "name": "creator",
          "type": "address"
        },
        {
          "internalType": "uint256",
          "name": "price",
          "type": "uint256"
        },
        {
          "internalType": "string",
          "name": "title",
          "type": "string"
        },
        {
          "internalType": "bool",
          "name": "exists",
          "type": "bool"
        },
        {
          "internalType": "bool",
          "name": "active",
          "type": "bool"
        }
      ],
      "stateMutability": "view",
      "type": "function"
    },
    {
      "inputs": [
        {
          "internalType": "address",
          "name": "_creator",
          "type": "address"
        },
        {
          "internalType": "uint256",
          "name": "_price",
          "type": "uint256"
        },
        {
          "internalType": "string",
          "name": "_title",
          "type": "string"
        }
      ],
      "name": "listItem",
      "outputs": [
        {
          "internalType": "uint256",
          "name": "",
          "type": "uint256"
        }
      ],
      "stateMutability": "nonpayable",
      "type": "function"
    },
    {
      "inputs": [],
      "name": "nextItemId",
      "outputs": [
        {
          "internalType": "uint256",
          "name": "",
          "type": "uint256"
        }
      ],
      "stateMutability": "view",
      "type": "function"
    },
    {
      "inputs": [],
      "name": "owner",
      "outputs": [
        {
          "internalType": "address",
          "name": "",
          "type": "address"
        }
      ],
      "stateMutability": "view",
      "type": "function"
    },
    {
      "inputs": [],
      "name": "pause",
      "outputs": [],
      "stateMutability": "nonpayable",
      "type": "function"
    },
    {
      "inputs": [],
      "name": "paused",
      "outputs": [
        {
          "internalType": "bool",
          "name": "",
          "type": "bool"
        }
      ],
      "stateMutability": "view",
      "type": "function"
    },
    {
      "inputs": [],
      "name": "platformFeePercent",
      "outputs": [
        {
          "internalType": "uint256",
          "name": "",
          "type": "uint256"
        }
      ],
      "stateMutability": "view",
      "type": "function"
    },
    {
      "inputs": [
        {
          "internalType": "uint256",
          "name": "",
          "type": "uint256"
        },
        {
          "internalType": "uint256",
          "name": "",
          "type": "uint256"
        }
      ],
      "name": "purchases",
      "outputs": [
        {
          "internalType": "address",
          "name": "buyer",
          "type": "address"
        },
        {
          "internalType": "uint256",
          "name": "amount",
          "type": "uint256"
        },
        {
          "internalType": "uint256",
          "name": "timestamp",
          "type": "uint256"
        },
        {
          "internalType": "bool",
          "name": "refunded",
          "type": "bool"
        }
      ],
      "stateMutability": "view",
      "type": "function"
    },
    {
      "inputs": [
        {
          "internalType": "uint256",
          "name": "_itemId",
          "type": "uint256"
        },
        {
          "internalType": "uint256",
          "name": "_buyerIndex",
          "type": "uint256"
        }
      ],
      "name": "refund",
      "outputs": [],
      "stateMutability": "nonpayable",
      "type": "function"
    },
    {
      "inputs": [],
      "name": "renounceOwnership",
      "outputs": [],
      "stateMutability": "nonpayable",
      "type": "function"
    },
    {
      "inputs": [
        {
          "internalType": "uint256",
          "name": "_itemId",
          "type": "uint256"
        }
      ],
      "name": "toggleItemStatus",
      "outputs": [],
      "stateMutability": "nonpayable",
      "type": "function"
    },
    {
      "inputs": [
        {
          "internalType": "address",
          "name": "newOwner",
          "type": "address"
        }
      ],
      "name": "transferOwnership",
      "outputs": [],
      "stateMutability": "nonpayable",
      "type": "function"
    },
    {
      "inputs": [],
      "name": "unpause",
      "outputs": [],
      "stateMutability": "nonpayable",
      "type": "function"
    },
    {
      "inputs": [
        {
          "internalType": "uint256",
          "name": "_newFeePercent",
          "type": "uint256"
        }
      ],
      "name": "updateFeePercent",
      "outputs": [],
      "stateMutability": "nonpayable",
      "type": "function"
    },
    {
      "inputs": [],
      "name": "usdcToken",
      "outputs": [
        {
          "internalType": "contract IERC20",
          "name": "",
          "type": "address"
        }
      ],
      "stateMutability": "view",
      "type": "function"
    }
  ],
  "bytecode": "0x60a060405260016008553480156200001657600080fd5b5060405162001a4a38038062001a4a83398101604081905262000039916200019a565b806001600160a01b0381166200006a57604051631e4fbdf760e01b8152600060048201526024015b60405180910390fd5b62000075816200012d565b50600180556001600160a01b038316620000d25760405162461bcd60e51b815260206004820152601460248201527f496e76616c696420555344432061646472657373000000000000000000000000604482015260640162000061565b6109c4821115620001155760405162461bcd60e51b815260206004820152600c60248201526b08ccaca40e8dede40d0d2ced60a31b604482015260640162000061565b506001600160a01b03909116608052600355620001db565b600080546001600160a01b038381166001600160a01b0319831681178455604051919092169283917f8be0079c531659141344cd1fd0a4f28419497f9722a3daafe3b4186f6b6457e09190a35050565b80516001600160a01b03811681146200019557600080fd5b919050565b600080600060608486031215620001b057600080fd5b620001bb846200017d565b925060208401519150620001d2604085016200017d565b90509250925092565b6080516118376200021360003960008181610198015281816109e701528181610e7501528181610ec20152610ef901526118376000f3fe608060405234801561001057600080fd5b506004361061018e5760003560e01c80638456cb59116100de57806395ccea6711610097578063bfb231d211610071578063bfb231d2146103a3578063e7fb74c7146103c7578063f05c5fed146103da578063f2fde38b146103ed57600080fd5b806395ccea671461036a578063a2d24cf81461037d578063bf96f3171461039057600080fd5b80638456cb59146102f557806385a34393146102fd578063893e7a531461031d5780638c639a85146103305780638da5cb5b146103395780639093bb201461034a57600080fd5b80634389ecf41161014b5780635c975abb116101255780635c975abb146102c557806367d81740146102db5780636a868974146102e4578063715018a6146102ed57600080fd5b80634389ecf41461027757806352238fdd1461028a5780635af36e3e146102b257600080fd5b806311eac855146101935780631b4ce7c5146101d75780633129e773146101f857806334b7bfef1461021b5780633bc701841461022e5780633f4ba83a1461026d575b600080fd5b6101ba7f000000000000000000000000000000000000000000000000000000000000000081565b6040516001600160a01b0390911681526020015b60405180910390f35b6101ea6101e5366004611395565b610400565b6040519081526020016101ce565b61020b61020636600461141c565b610662565b6040516101ce949392919061147b565b6101ea6102293660046114b5565b610760565b61024161023c3660046114df565b610791565b604080516001600160a01b039095168552602085019390935291830152151560608201526080016101ce565b610275610844565b005b6101ea6102853660046114b5565b610856565b61029d61029836600461141c565b610872565b604080519283526020830191909152016101ce565b6102756102c03660046114df565b6108a3565b60025460ff1660405190151581526020016101ce565b6101ea6109c481565b6101ea60085481565b610275610a67565b610275610a79565b61031061030b366004611501565b610a89565b6040516101ce9190611523565b61031061032b366004611501565b610af5565b6101ea60035481565b6000546001600160a01b03166101ba565b6101ea61035836600461141c565b60009081526005602052604090205490565b6102756103783660046114b5565b610b5f565b61027561038b36600461141c565b610b8d565b61024161039e3660046114df565b610c3d565b6103b66103b136600461141c565b610c90565b6040516101ce959493929190611567565b6102756103d536600461141c565b610d57565b6102756103e836600461141c565b61101f565b6102756103fb366004611501565b6110ad565b600061040a6110e8565b6001600160a01b0385166104655760405162461bcd60e51b815260206004820152601760248201527f496e76616c69642063726561746f72206164647265737300000000000000000060448201526064015b60405180910390fd5b600084116104b55760405162461bcd60e51b815260206004820152601c60248201527f5072696365206d7573742062652067726561746572207468616e203000000000604482015260640161045c565b816104fa5760405162461bcd60e51b81526020600482015260156024820152745469746c652063616e6e6f7420626520656d70747960581b604482015260640161045c565b600880546000918261050b836115bd565b9190505590506040518060a00160405280876001600160a01b0316815260200186815260200185858080601f016020809104026020016040519081016040528093929190818152602001838380828437600092018290525093855250506001602080850182905260409485018290528684526004815292849020855181546001600160a01b0319166001600160a01b039091161781559285015190830155509082015160028201906105bd9082611676565b5060608201516003909101805460809093015115156101000261ff00199215159290921661ffff19909316929092171790556001600160a01b0386166000818152600660209081526040808320805460018101825590845291909220018390555182907f57ef1efe280df4ab906fa621fa833fcd4e1eaf8667108a8725223d9cc6509fa79061065190899089908990611736565b60405180910390a395945050505050565b60008181526004602052604081206003810154829160609183919060ff1661069c5760405162461bcd60e51b815260040161045c9061176c565b8054600182015460038301546002840180546001600160a01b03909416939091610100900460ff169082906106d0906115ec565b80601f01602080910402602001604051908101604052809291908181526020018280546106fc906115ec565b80156107495780601f1061071e57610100808354040283529160200191610749565b820191906000526020600020905b81548152906001019060200180831161072c57829003601f168201915b505050505091509450945094509450509193509193565b6007602052816000526040600020818154811061077c57600080fd5b90600052602060002001600091509150505481565b60008281526005602052604081205481908190819085106107e45760405162461bcd60e51b815260206004820152600d60248201526c092dcecc2d8d2c840d2dcc8caf609b1b604482015260640161045c565b600086815260056020526040812080548790811061080457610804611799565b600091825260209091206004909102018054600182015460028301546003909301546001600160a01b039092169a90995091975060ff1695509350505050565b61084c61110c565b610854611139565b565b6006602052816000526040600020818154811061077c57600080fd5b6000806127106003548461088691906117af565b61089091906117cc565b915061089c82846117ee565b9050915091565b6108ab61110c565b6108b361118b565b60008281526004602052604090206003015460ff166108e45760405162461bcd60e51b815260040161045c9061176c565b60008281526005602052604090205481106109375760405162461bcd60e51b8152602060048201526013602482015272092dcecc2d8d2c840c4eaf2cae440d2dcc8caf606b1b604482015260640161045c565b600082815260056020526040812080548390811061095757610957611799565b60009182526020909120600490910201600381015490915060ff16156109b25760405162461bcd60e51b815260206004820152601060248201526f105b1c9958591e481c99599d5b99195960821b604482015260640161045c565b60038101805460ff19166001179055610a116109d66000546001600160a01b031690565b825460018401546001600160a01b037f00000000000000000000000000000000000000000000000000000000000000008116939216906111b5565b805460018201546040519081526001600160a01b039091169084907f7a482fdeb6bc9a1376f597068a214a7a39472bb2eff1b8cad21ba04f49ddca1b9060200160405180910390a350610a6360018055565b5050565b610a6f61110c565b6108546000611222565b610a8161110c565b610854611272565b6001600160a01b038116600090815260076020908152604091829020805483518184028101840190945280845260609392830182828015610ae957602002820191906000526020600020905b815481526020019060010190808311610ad5575b50505050509050919050565b6001600160a01b038116600090815260066020908152604091829020805483518184028101840190945280845260609392830182828015610ae95760200282019190600052602060002090815481526020019060010190808311610ad55750505050509050919050565b610b6761110c565b610a63610b7c6000546001600160a01b031690565b6001600160a01b03841690836112af565b6000818152600460205260409020600381015460ff16610bbf5760405162461bcd60e51b815260040161045c9061176c565b80546001600160a01b0316331480610be157506000546001600160a01b031633145b610c1e5760405162461bcd60e51b815260206004820152600e60248201526d139bdd08185d5d1a1bdc9a5e995960921b604482015260640161045c565b600301805461ff001981166101009182900460ff161590910217905550565b60056020528160005260406000208181548110610c5957600080fd5b600091825260209091206004909102018054600182015460028301546003909301546001600160a01b039092169450925060ff1684565b6004602052600090815260409020805460018201546002830180546001600160a01b03909316939192610cc2906115ec565b80601f0160208091040260200160405190810160405280929190818152602001828054610cee906115ec565b8015610d3b5780601f10610d1057610100808354040283529160200191610d3b565b820191906000526020600020905b815481529060010190602001808311610d1e57829003601f168201915b5050506003909301549192505060ff8082169161010090041685565b610d5f61118b565b610d676110e8565b6000818152600460205260409020600381015460ff16610d995760405162461bcd60e51b815260040161045c9061176c565b6003810154610100900460ff16610de45760405162461bcd60e51b815260206004820152600f60248201526e4974656d206e6f742061637469766560881b604482015260640161045c565b8054336001600160a01b0390911603610e355760405162461bcd60e51b815260206004820152601360248201527243616e6e6f7420627579206f776e206974656d60681b604482015260640161045c565b600181015460035460009061271090610e4e90846117af565b610e5891906117cc565b90506000610e6682846117ee565b9050610e9d6001600160a01b037f0000000000000000000000000000000000000000000000000000000000000000163330866111b5565b8115610ee957610ee9610eb86000546001600160a01b031690565b6001600160a01b037f00000000000000000000000000000000000000000000000000000000000000001690846112af565b8354610f22906001600160a01b037f000000000000000000000000000000000000000000000000000000000000000081169116836112af565b6000858152600560209081526040808320815160808101835233808252818501898152428386019081526060808501898152865460018082018955978b52898b209651600490910290960180546001600160a01b0319166001600160a01b039788161781559351848801559151600284015590516003909201805460ff19169215159290921790915581875260078652848720805494850181558752958590209092018a9055885483518981529485018890529284018690529190911692909188917f36bed56c28d76c2d379cd8a4df5c0339a1ecae5e7203937e38f5d767bd2e53d6910160405180910390a45050505061101c60018055565b50565b61102761110c565b6109c48111156110685760405162461bcd60e51b815260206004820152600c60248201526b08ccaca40e8dede40d0d2ced60a31b604482015260640161045c565b600380549082905560408051828152602081018490527f528d9479e9f9889a87a3c30c7f7ba537e5e59c4c85a37733b16e57c62df61302910160405180910390a15050565b6110b561110c565b6001600160a01b0381166110df57604051631e4fbdf760e01b81526000600482015260240161045c565b61101c81611222565b60025460ff16156108545760405163d93c066560e01b815260040160405180910390fd5b6000546001600160a01b031633146108545760405163118cdaa760e01b815233600482015260240161045c565b6111416112e5565b6002805460ff191690557f5db9ee0a495bf2e6ff9c91a7834c1ba4fdd244a5e8aa4e537bd38aeae4b073aa335b6040516001600160a01b03909116815260200160405180910390a1565b6002600154036111ae57604051633ee5aeb560e01b815260040160405180910390fd5b6002600155565b6040516001600160a01b03848116602483015283811660448301526064820183905261121c9186918216906323b872dd906084015b604051602081830303815290604052915060e01b6020820180516001600160e01b038381831617835250505050611308565b50505050565b600080546001600160a01b038381166001600160a01b0319831681178455604051919092169283917f8be0079c531659141344cd1fd0a4f28419497f9722a3daafe3b4186f6b6457e09190a35050565b61127a6110e8565b6002805460ff191660011790557f62e78cea01bee320cd4e420270b5ea74000d11b0c9f74754ebdbfc544b05a25861116e3390565b6040516001600160a01b038381166024830152604482018390526112e091859182169063a9059cbb906064016111ea565b505050565b60025460ff1661085457604051638dfc202b60e01b815260040160405180910390fd5b600080602060008451602086016000885af18061132b576040513d6000823e3d81fd5b50506000513d91508115611343578060011415611350565b6001600160a01b0384163b155b1561121c57604051635274afe760e01b81526001600160a01b038516600482015260240161045c565b80356001600160a01b038116811461139057600080fd5b919050565b600080600080606085870312156113ab57600080fd5b6113b485611379565b935060208501359250604085013567ffffffffffffffff808211156113d857600080fd5b818701915087601f8301126113ec57600080fd5b8135818111156113fb57600080fd5b88602082850101111561140d57600080fd5b95989497505060200194505050565b60006020828403121561142e57600080fd5b5035919050565b6000815180845260005b8181101561145b5760208185018101518683018201520161143f565b506000602082860101526020601f19601f83011685010191505092915050565b60018060a01b03851681528360208201526080604082015260006114a26080830185611435565b9050821515606083015295945050505050565b600080604083850312156114c857600080fd5b6114d183611379565b946020939093013593505050565b600080604083850312156114f257600080fd5b50508035926020909101359150565b60006020828403121561151357600080fd5b61151c82611379565b9392505050565b6020808252825182820181905260009190848201906040850190845b8181101561155b5783518352928401929184019160010161153f565b50909695505050505050565b60018060a01b038616815284602082015260a06040820152600061158e60a0830186611435565b9315156060830152509015156080909101529392505050565b634e487b7160e01b600052601160045260246000fd5b6000600182016115cf576115cf6115a7565b5060010190565b634e487b7160e01b600052604160045260246000fd5b600181811c9082168061160057607f821691505b60208210810361162057634e487b7160e01b600052602260045260246000fd5b50919050565b601f8211156112e0576000816000526020600020601f850160051c8101602086101561164f5750805b601f850160051c820191505b8181101561166e5782815560010161165b565b505050505050565b815167ffffffffffffffff811115611690576116906115d6565b6116a48161169e84546115ec565b84611626565b602080601f8311600181146116d957600084156116c15750858301515b600019600386901b1c1916600185901b17855561166e565b600085815260208120601f198616915b82811015611708578886015182559484019460019091019084016116e9565b50858210156117265787850151600019600388901b60f8161c191681555b5050505050600190811b01905550565b83815260406020820152816040820152818360608301376000818301606090810191909152601f909201601f1916010192915050565b602080825260139082015272125d195b48191bd95cc81b9bdd08195e1a5cdd606a1b604082015260600190565b634e487b7160e01b600052603260045260246000fd5b80820281158282048414176117c6576117c66115a7565b92915050565b6000826117e957634e487b7160e01b600052601260045260246000fd5b500490565b818103818111156117c6576117c66115a756fea2646970667358221220ebf93dc0f0367f60f9177058a0dc08e62bd2780d2e1afe5674bc2920e90181b964736f6c63430008180033",
  "linkReferences": {},
  "deployedLinkReferences": {}
}